:020000040800F2
:1000000070040020490100087D1100087F110008DC
:1000100083110008871100088B1100080000000000
:100020000000000000000000000000008F11000828
:1000300091110008000000009311000895110008BC
:100040006301000863010008630100086301000800
:1000500063010008630100086301000863010008F0
:1000600063010008630100086301000863010008E0
:1000700063010008630100086301000863010008D0
:1000800063010008630100086301000863010008C0
:1000900063010008630100086301000863010008B0
:1000A00063010008630100086301000863010008A0
:1000B0006301000863010008630100086301000890
:1000C0006301000863010008630100086301000880
:1000D0006301000863010008630100086301000870
:1000E0006301000863010008630100086301000860
:1000F0006301000863010008630100086301000850
:10010000630100086301000863010008630100083F
:10011000630100086301000863010008630100082F
:10012000630100086301000863010008630100081F
:10013000DFF810D002F080FC00480047550E0008A0
:10014000AFF300807004002006488047064800474F
:10015000FEE7FEE7FEE7FEE7FEE7FEE7FEE7FEE777
:10016000FEE7FEE74B020008310100080CB5002055
:10017000019000906C48006840F480306A49086043
:1001800000BF6948006800F4003000900198401CEE
:100190000190009818B90198B0F5A06FF1D16248AC
:1001A000006800F4003010B10120009001E0002050
:1001B00000900098012843D15C48006840F010008E
:1001C0005A4908600846006820F0030008600846A5
:1001D000006840F002000860534840685249486097
:1001E0000846406848600846406840F480604860BF
:1001F0000846406820F47C1048600846406840F497
:10020000E81048600846006840F08070086000BF51
:100210004548006800F000700028F9D04248406866
:1002200020F00300404948600846406840F0020062
:10023000486000BF3C48406800F00C000828F9D135
:100240000CBD10B5FFF792FF10BD10B53648006821
:1002500040F00100344908600846406834490840CD
:100260003149486008460068324908402E49086014
:100270000846006820F4802008600846406820F4A2
:10028000FE0048604FF41F008860FFF7DAFF4FF070
:1002900000602949086010BD10B50021002000222F
:1002A000214B5B6803F00C0121B1042906D0082919
:1002B00028D107E0214B224C236027E01F4B204C24
:1002C000236023E0184B5B6803F47010164B5B68E7
:1002D00003F48032022303EB904022B9194B4343CD
:1002E000174C23600DE0104B5B6803F4003323B11F
:1002F000144B4343124C236003E0104B4343104C18
:10030000236003E00D4B0E4C236000BF00BF064B83
:100310005B68C3F303130C4CE15C094B1B68CB40D7
:10032000074C236010BD0000001002400020024076
:100330000000FFF8FFFFF6FE08ED00E000127A0073
:100340000000002000093D000400002010B5044614
:10035000CC48844208D10121042000F02DFB00216B
:10036000042000F029FB46E0C748844208D101215F
:10037000082000F021FB0021082000F01DFB3AE0DE
:10038000C248844208D10121102000F015FB002151
:10039000102000F011FB2EE0BD48844208D101215D
:1003A000202000F009FB0021202000F005FB22E0C6
:1003B000B848844208D10121402000F0FDFA002114
:1003C000402000F0F9FA16E0B348844208D1012138
:1003D000802000F0F1FA0021802000F0EDFA0AE020
:1003E000AE48844207D10121801500F0E5FA0021D2
:1003F000A01500F0E1FA10BD10B50121084600F08B
:10040000DBFA0021012000F0D7FA10BD2DE9F04100
:10041000024600250026002000230024002791F832
:1004200003C00CF00F0591F803C00CF0100CBCF1E8
:10043000000F03D091F802C04CEA050591F800C006
:10044000BCF1000F31D0146800202BE04FF0010CFC
:100450000CFA00F3B1F800C00CEA03069E4220D16A
:1004600083004FF00F0C0CFA03F7BC4305FA03FCB2
:100470004CEA040491F803C0BCF1280F06D14FF0F8
:10048000010C0CFA00FCC2F814C00AE091F803C099
:10049000BCF1480F05D14FF0010C0CFA00FCC2F87A
:1004A00010C0401C0828D1D31460B1F800C0BCF1C2
:1004B000FF0F34DD546800202EE000F1080C4FF0EF
:1004C000010808FA0CF3B1F800C00CEA03069E42DA
:1004D00021D183004FF00F0C0CFA03F7BC4305FA4F
:1004E00003FC4CEA040491F803C0BCF1280F05D1C9
:1004F00000F1080C08FA0CF8C2F8148091F803C057
:10050000BCF1480F07D100F1080C4FF0010808FAC0
:100510000CF8C2F81080401C0828CED35460BDE807
:10052000F0814FF6FF710180022181700421C170BA
:1005300070470246002093680B400BB1012000E099
:10054000002070470146886880B27047024600204C
:10055000D3680B400BB1012000E00020704701463A
:10056000C86880B2704701617047416170470AB145
:10057000016100E041617047C16070474FF4803213
:100580000A438261816182618269826970470246A1
:100590000020434B18684FF68073184040EA021061
:1005A00008433F4B186070473E49C8617047F0B53B
:1005B0000A46002300240021002500F00046B6F181
:1005C000004F02D1364EF16901E0354E7168C0F33B
:1005D000034583B200F44016B6F5401F08D121F060
:1005E00070612F4E766826F070662D4F7E6012E0A7
:1005F00000F48016B6F5801F06D1032606FA05F42E
:10060000A14341F0706106E0460D360103FA06F69B
:10061000B14341F0706122B1460D360103FA06F68E
:10062000314300F00046B6F1004F02D11C4EF1619B
:1006300001E01B4E7160F0BD30B500228B071C0F2E
:100640000F2303FA04F2164B08338C1053F82430AE
:100650009343134C08348D1044F8253023468C10F6
:1006600053F824308C07240F00FA04F423430C4C75
:1006700008348D1044F8253030BD0A49DC3108605B
:100680007047000000080140000C014000100140CC
:100690000014014000180140001C014000200140EE
:1006A0000000014000002042DF48006840F00100E7
:1006B000DD49086008464068DC490840DA4948607E
:1006C00008460068DA490840D749086008460068CB
:1006D00020F4802008600846406820F4FE0048604E
:1006E0004FF41F0088607047CF49096821F48031BA
:1006F000CD4A11601146096821F480211160B0F5DE
:10070000803F03D0B0F5802F0ED106E0C6490968BE
:1007100041F48031C44A116007E0C349096841F4DB
:10072000A021C14A116000E000BF00BF704710B5B2
:1007300001460022002300204A11012A02D1BA4CAE
:10074000236806E0022A02D1B74C236A01E0B64CC6
:10075000636A01F01F02012494401C400CB1012087
:1007600000E0002010BD38B50020009000240025D6
:1007700000BF3120FFF7DBFF05460098401C0090CA
:100780000098B0F5A06F01D0002DF2D03120FFF716
:10079000CEFF08B1012400E00024204638BD014608
:1007A0000020A14A106820F0F80040EAC100106063
:1007B0007047A04908607047024600209A4B58686D
:1007C00020F47C1042EA01031843974B58607047AD
:1007D00098490866704701460020934A506820F007
:1007E00003000843506070478F48406800F00C00D9
:1007F0007047014600208C4A506820F0F000084302
:100800005060704701460020874A506820F4E0603D
:1008100008435060704701460020834A506820F426
:10082000605040EAC1005060704729B17E4A527A58
:1008300002437D4B5A7204E07B4A527A82437A4BE0
:100840005A7270477B49D8310860704701460020D2
:10085000754A506820F440400843506070470021BA
:10086000714A20321170704A82F82010012802D09B
:1008700004280AD104E001216B4A2032117005E0FE
:100880000521694A2032117000E000BF00BF7047A7
:100890006949086070476449096A0143624A116204
:1008A0007047654944390860704730B5002100221F
:1008B000002400235C4D6D6805F00C0121B1042972
:1008C00005D0082923D105E05C4D056022E05B4D91
:1008D00005601FE0544D6D6805F47012524D6D684F
:1008E00005F48034022505EB92421CB9544D554362
:1008F00005600BE04C4D6D6805F400351DB1504DA1
:100900005543056002E04D4D5543056002E04B4DF7
:10091000056000BF00BF444D6D6805F0F001090996
:10092000484D6B5C0568DD4045603F4D6D6805F4E2
:10093000E061090A434D6B5C4568DD4085603A4DD6
:100940006D6805F46051C90A3E4D6B5C4568DD4039
:10095000C560354D6D6805F44041890B3A4D6B5CBF
:10096000C568B5FBF3F5056130BD29B12E4A526962
:1009700002432D4B5A6104E02B4A526982432A4BB1
:100980005A61704729B1284A92690243264B9A61FD
:1009900004E0254A92698243234B9A61704729B14A
:1009A000214AD2690243204BDA6104E01E4AD2692F
:1009B00082431D4BDA61704729B11B4AD26802435A
:1009C000194BDA6004E0184AD2688243164BDA60A9
:1009D000704729B1144A12690243134B1A6104E0AB
:1009E000114A12698243104B1A617047124940390B
:1009F000086070470F49C86470470B49C871704759
:100A00000948406A40F080700749486270470146D3
:100A10000020054A92680A400AB1012000E0002047
:100A20007047014988727047001002400000FFF8CB
:100A3000FFFFF6FE000042428004424200127A00AC
:100A400000093D00140000202400002010B50446D9
:100A5000FB48844209D101218803FFF7ADFF002143
:100A60004FF48040FFF7A8FF32E0F648844209D1F6
:100A700001214804FFF7ADFF00214FF40030FFF7DC
:100A8000A8FF25E0F048844209D101218804FFF73E
:100A9000A0FF00214FF48020FFF79BFF18E0EB48F8
:100AA000844209D10121C804FFF793FF00214FF4CC
:100AB0000020FFF78EFF0BE0E548844208D10121BA
:100AC0000805FFF786FF00214FF48010FFF781FF34
:100AD00010BD2DE9F04786B005460E460024A2461B
:100AE00000BFA1460027B08900B100BF2F462C8A65
:100AF0004CF6FF700440F08804432C82AC894EF61B
:100B0000F3100440B08831890843718908430443D5
:100B1000AC81AC8A4FF6FF400440B0890443AC82FC
:100B200001A8FFF7C2FEC648874202D1DDF810A037
:100B300001E0DDF80CA0A88900F4004040B10AEB08
:100B4000CA0000EB0A1031684900B0FBF1F807E079
:100B50000AEBCA0000EB0A1031688900B0FBF1F81B
:100B60006420B8FBF0F004012009642101FB108926
:100B7000A88900F4004040B1322000EBC900B0FB6E
:100B8000F1F000F00700044308E0322000EB091008
:100B90006421B0FBF1F000F00F0004432C8106B09B
:100BA000BDE8F0874FF41651016000218180C180BB
:100BB00001810C21418100218181704710B50246DD
:100BC0000020108A4FF2FF0318400B884C88234303
:100BD0008C882343CC8823431843108210BD002106
:100BE000018041808180C180704721B1828942F4B7
:100BF0000052828104E082894DF6FF731A4082819F
:100C00007047F0B50346002400260025002040F67A
:100C10006A17B94200D100BF1846C1F3421401F06F
:100C20001F06012707FA06F5012C01D10C3004E05C
:100C3000022C01D1103000E014301AB107682F43A4
:100C4000076002E00768AF430760F0BD1AB1838A0E
:100C50000B43838202E0838A8B4383827047028A3C
:100C60004FF6F0731A400282028A0A4302827047EA
:100C700082894FF2FF731A40828182890A438281FE
:100C8000704721B1828942F00202828104E08289A8
:100C90004FF6FD731A4082817047028A4FF6DF7368
:100CA0001A400282028A0A430282704721B1028AF4
:100CB00042F48042028204E0028A4BF6FF731A403B
:100CC00002827047C1F3080282807047014688881B
:100CD000C0F308007047818941F0010181817047AC
:100CE000028BD2B20283028B42EA01220283704756
:100CF000028B02F47F420283028B0A430283704715
:100D000021B1828A42F02002828204E0828A4FF678
:100D1000DF731A408282704721B1828A42F010024A
:100D2000828204E0828A4FF6EF731A408282704713
:100D300021B1828A42F00802828204E0828A4FF660
:100D4000F7731A408282704721B1828942F40042CF
:100D5000828103E08289C2F30E028281704721B151
:100D6000828A42F40062828204E0828A4FF2FF7338
:100D70001A4082827047828A4FF6FB731A40828241
:100D8000828A0A438282704721B1828A42F002023B
:100D9000828204E0828A4FF6FD731A408282704795
:100DA00002460020B1F5007F00D100BF13880B4040
:100DB0000BB1012000E00020704701F40072B2F591
:100DC000007F00D100BFCA430280704770B5024661
:100DD000002400230025002040F66A16B14200D10D
:100DE00000BFC1F3421501F01F03012606FA03F309
:100DF000012D02D19689334006E0022D02D1168AD8
:100E0000334001E0968A33400C12012606FA04F4BE
:100E10001688344013B10CB1012000E0002070BDF1
:100E200010B50022002340F66A14A14200D100BF91
:100E30000A1201249440A3B2DC43048010BD0000D8
:100E4000003801400044004000480040004C004091
:100E50000050004094B001F018F87148008849F241
:100E60004131884203D1062000F09AFF08E06C4827
:100E7000008848F25251884202D1002000F090FFD1
:100E8000684801F0B5FA00214FF4784001F0B6FA55
:100E90004FF4A073F0220021084601F04DF862A241
:100EA0001421084601F048FA00F0D8F94FF0E0208C
:100EB000006940F001004FF0E021086100F0AAF95C
:100EC00000F0F2FB00F0C8FB00F047FA00F069FA0E
:100ED00000281ED15AA001F025FE04206049486177
:100EE00000211F2001F08AFA01F085FAC0888004F1
:100EF000040C5CA1204601F0F1F901F07CFAC088F5
:100F000000EB800084B25DA1204601F0E7F900BF4C
:100F1000FEE764A001F006FE6BA001F003FE7DE099
:100F200071480068002879D07048B0F90430B0F9F1
:100F30000220B0F900106EA001F0F4FD7348B0F982
:100F40000430B0F90220B0F9001071A001F0EAFD00
:100F50007548006801F0A3FB044622460B4673A0C7
:100F600001F0E0FD01F047FAC088C0EBC00084B298
:100F700072A1204601F0B2F95C48B0F9040000907B
:100F80005A48B0F90230B0F9002070A102A801F06F
:100F9000D9FD01F030FAC088C004040C02A9204633
:100FA00001F09CF901F027FAC08800EB400101EB49
:100FB000C00084B268A1204601F090F95348B0F90E
:100FC000040000905148B0F90230B0F900205FA150
:100FD00002A801F0B7FD01F00EFAC08800EB400056
:100FE0008004040C02A9204601F078F94E480068FC
:100FF00001F055FB044622460B465BA102A801F016
:10100000A1FD01F0F8F9C088C0EB001084B202A97C
:10101000204601F063F900203349086080E70000B2
:101020006200002044000020546869732069732026
:1010300061204D5055363035302064656D6F0000AD
:101040000D0AC3BBD3D0BCECB2E2B5BD4D50553692
:10105000303530B4ABB8D0C6F7A3A10D0A000000FC
:10106000001001404E6F204D505536303530206411
:10107000657465637465642120000000506C6561CF
:10108000736520636865636B2074686520686172AE
:10109000647761726520636F6E6E656374696F6EED
:1010A000212000000D0A20BBB6D3ADCAB9D3C3D2EC
:1010B000B0BBF0202053544D333220BFAAB7A2B0AA
:1010C000E5A1A30D0A0000000D0A20D5E2CAC7D28F
:1010D000BBB8F64D505536303530B2E2CAD4C0FDFB
:1010E000B3CC200D0A0000004000002028000020A2
:1010F0000D0ABCD3CBD9B6C8A3BA2025386425388D
:101100006425386420202020000000002E000020EC
:10111000CDD3C2DDD2C7A3BA2025386425386425D3
:10112000386420202020000034000020CEC2B6C841
:10113000A3BA2025382E32660000000041636365A3
:101140006C65726174696F6E00000000253864255B
:1011500038642538640000004779726F2020202011
:10116000202020203A00000054656D70657274756F
:10117000726520203A25382E32660000704700BF85
:10118000FEE700BFFEE700BFFEE700BFFEE77047D7
:101190007047704710B5002407E0184850F8240045
:1011A000401C164941F82400641C022CF5DB13484E
:1011B0000068B0F57A7F08D3002010490860104815
:1011C000C06880F008000E49C8600C484068B0F55F
:1011D000FA7F11D30020094948600A48006858B9CD
:1011E000094800F0F6F8094800F013F9084800F043
:1011F00040F901200349086010BD000038000020BC
:101200000010014040000020280000202E00002097
:101210003400002008B501211020FFF7B3FB0420A3
:10122000ADF8000010208DF8030003208DF80200B7
:1012300069460948FFF7EAF80820ADF8000069465A
:101240000548FFF7E3F804210348FFF78CF908216C
:101250000148FFF788F908BD0010014030B51A4871
:1012600000684FF47A72B0FBF2F1B1F1807F01D3E4
:1012700001201DE021F07F40401E4FF0E022506130
:1012800050170F22002807DA13071D0E0F4B00F02E
:101290000F04241F1D5503E013071C0E0C4B1C5498
:1012A00000BF00204FF0E022906107201061002075
:1012B00008B100BFFEE74FF0E020006940F00100F8
:1012C0004FF0E021086130BD0000002018ED00E083
:1012D00000E400E070B505460C4600F008F9D020A7
:1012E00000F028F900F09CF9284600F023F900F0FE
:1012F00097F9204600F01EF900F092F900F00CF981
:1013000070BD2DE9F04107460C46154600F0EFF898
:10131000D02000F00FF900F083F9384600F00AF908
:1013200000F07EF900F0E3F8D12000F003F900F0BE
:1013300077F9002606E0012000F04CF92070641CCB
:10134000701CC6B2681EB042F5DC002000F042F905
:10135000207000F0E1F8BDE8F08170B500240025B0
:1013600000BF06E0002500E06D1CB5F57A7FFBDBD1
:10137000641CB4F57A7FF5DB00216B20FFF7AAFF30
:1013800007211920FFF7A6FF06211A20FFF7A2FF69
:1013900000211C20FFF79EFF18211B20FFF79AFF5A
:1013A00070BD08B500200090012269467520FFF746
:1013B000A8FF9DF80000682804D0404801F0B2FB67
:1013C000002008BD9DF800103DA001F0ABFB0120FE
:1013D000F7E71CB50446062269463B20FFF791FF5C
:1013E0009DF801009DF8001040EA012000B2208025
:1013F0009DF803009DF8021040EA012000B26080D1
:101400009DF805009DF8041040EA012000B2A0807C
:101410001CBD1CB50446062269464320FFF771FF38
:101420009DF801009DF8001040EA012000B22080E4
:101430009DF803009DF8021040EA012000B2608090
:101440009DF805009DF8041040EA012000B2A0803C
:101450001CBD38B50446022269464120FFF751FF02
:101460009DF801009DF8001040EA012000B22080A4
:1014700038BD2DE9F84F8246022269464120FFF728
:1014800040FF9DF801009DF8001040EA01200FFA8E
:1014900080FB584601F0F2F8804600220D4B01F027
:1014A0007EF806460C4A0D4B00F0D2FF044601F0D0
:1014B00009F9CAF80000BDE8F88F0000806F000845
:1014C0004D505536303530204944203D2025640D9F
:1014D0000A00000000407540A4703D0AD743424016
:1014E000002001E0411CC8B20A28FBDB704710B5A0
:1014F00008206C49086004200860FFF7F1FF08200D
:101500006849091D0860FFF7EBFF04206549091DC4
:101510000860FFF7E5FF10BD10B508206149091DFF
:1015200008600420091F0860FFF7DAFF08205D4902
:10153000086010BD70B50446002520E004F080006E
:1015400018B108205749086003E008205549091DD3
:101550000860FFF7C5FF042052490860FFF7C0FF8D
:1015600004205049091D0860072D02D10820091FD9
:1015700008606006040EFFF7B3FF681CC5B2082DB3
:10158000DCDB70BD10B508204649091D0860FFF777
:10159000A7FF042043490860FFF7A2FF0420414948
:1015A000091D0860FFF79CFF08203E49086010BD38
:1015B00010B508203B490860FFF792FF0420394925
:1015C0000860FFF78DFF04203649091D0860FFF70A
:1015D00087FF10BD70B505460024002616E06006A2
:1015E000040E04202F490860FFF77AFF2D480838C1
:1015F000006800F0080008B1601CC4B2042029494A
:10160000091D0860FFF76CFF701CC6B2082EE6DBF0
:1016100015B9FFF7CDFF01E0FFF7B4FF204670BD1D
:1016200010B508201F490860FFF75AFF04201D4924
:101630000860FFF755FF1B480838006800F00800F5
:1016400008B1012400E0002404201649091D0860A7
:10165000FFF746FF204610BD08B501210420FFF723
:1016600091F90C20ADF8000003208DF80200142041
:101670008DF8030069460B481038FEF7C7FEFFF7E8
:101680004BFF08BD70B50446FFF7E6FFFFF72FFFDD
:101690002046FFF74FFFFFF7C3FF0546FFF73CFF6C
:1016A000284670BD1008014000B585B00121042016
:1016B000FFF768F901218803FFF764F94FF4007020
:1016C000ADF8100018208DF8130003208DF81200DB
:1016D00004A92248FEF79AFE4FF48060ADF810008E
:1016E00004208DF8130004A91C48FEF78FFE4FF468
:1016F000E13000900020ADF80400ADF80600ADF830
:101700000800ADF80C000C20ADF80A00694614483A
:10171000FFF7DFF901211248FFF767FA05B000BDB6
:1017200070B504460D46E1B20D48FFF7CBFA00BF95
:1017300080210B48FFF734FB0028F9D0204670BD0C
:1017400010B5044600BF20210548FFF729FB0028FB
:10175000F9D00348FFF7BAFA10BD000000080140B5
:101760000038014001B502E00098401E009000984A
:101770000028F9D108BD08B501210846FFF702F994
:1017800001213820FFF7FEF80121FE48FEF70FFF88
:1017900003208DF8020010208DF803004FF6FF7033
:1017A000ADF800006946F848FEF730FE2020ADF89D
:1017B00000006946F548FEF729FE4020ADF800001C
:1017C0006946F248FEF722FE1020ADF80000694697
:1017D000EE48FEF71BFE8020ADF800006946EB489E
:1017E000FEF714FE0420ADF800006946E848FEF755
:1017F0000DFE08BD10B50024042001F06BF901F0C6
:101800003DF901F03BF901F039F904464FF6FF705C
:1018100000EA042401F032F9044348F252508442B1
:1018200001D1204610BDD32001F054F901F026F972
:1018300001F024F901F022F904464FF6FF7000EAA6
:10184000042401F01BF9044349F24130844201D1E0
:101850002046E7E70020E5E710B5FFF7CBFFCD49CD
:1018600008800846008849F2413188427ED14FF60F
:10187000FF70FFF777FFCF2001F02CF9002001F077
:101880003DF9812001F03AF9302001F037F94FF6A7
:10189000FF70FFF767FFED2001F01CF9642001F0F5
:1018A0002DF9032001F02AF9122001F027F98120F7
:1018B00001F024F94FF6FF70FFF754FFE82001F024
:1018C00009F9852001F01AF9102001F017F97820A4
:1018D00001F014F94FF6FF70FFF744FFCB2001F041
:1018E000F9F8392001F00AF92C2001F007F900205D
:1018F00001F004F9342001F001F9022001F0FEF8B2
:101900004FF6FF70FFF72EFFF72001F0E3F82020DD
:1019100001F0F4F84FF6FF70FFF724FFEA2001F022
:10192000D9F8002001F0EAF8002001F0E7F84FF6BE
:10193000FF70FFF717FFB12001F0CCF8002001F095
:10194000DDF81B2001F0DAF84FF6FF70FFF70AFF11
:10195000B62001F0BFF80A2001F0D0F8A22001F073
:10196000CDF84FF6FF70FFF7FDFE00E0D6E0C02097
:1019700001F0B0F8352001F0C1F84FF6FF70FFF725
:10198000F1FEC12001F0A6F8112001F0B7F8C52042
:1019900001F0A0F8452001F0B1F8452001F0AEF8C3
:1019A000C72001F097F8A22001F0A8F8F22001F07A
:1019B00091F8002001F0A2F8262001F08BF8012018
:1019C00001F09CF84FF6FF70FFF7CCFEE02001F02D
:1019D00081F80F2001F092F8262001F08FF82420E2
:1019E00001F08CF80B2001F089F80E2001F086F848
:1019F000092001F083F8542001F080F8A82001F0BC
:101A00007DF8462001F07AF80C2001F077F81720D5
:101A100001F074F8092001F071F80F2001F06EF860
:101A2000072001F06BF8002001F068F8E12001F0D8
:101A300051F8002001F062F8192001F05FF81B2036
:101A400001F05CF8042001F059F8102001F056F87C
:101A5000072001F053F82A2001F050F8472001F048
:101A60004DF8392001F04AF8032001F047F806202C
:101A700001F044F8062001F041F8302001F03EF872
:101A8000382001F03BF80F2001F038F84FF6FF70D6
:101A9000FFF768FE362001F01DF8C82001F02EF88F
:101AA0004FF6FF70FFF75EFE2A2001F013F80020CA
:101AB00001F024F8002001F021F8002001F01EF8C8
:101AC000EF2001F01BF84FF6FF70FFF74BFE2B20C5
:101AD00001F000F8002001F011F8002001F00EF8EC
:101AE000012001F00BF83F2001F008F84FF6FF70DD
:101AF000FFF738FE3A2000F0EDFF552000F0FEFF22
:101B0000112000F0E7FF2448FFF72CFE4FF6FF708E
:101B1000FFF728FE292000F0DDFF40E11D48008886
:101B200048F252518842F8D14FF6FF70FFF71AFE83
:101B3000CF2000F0CFFF002000F0E0FFC12000F038
:101B4000DDFF302000F0DAFF4FF6FF70FFF70AFEEE
:101B5000ED2000F0BFFF642000F0D0FF032000F074
:101B6000CDFF122000F0CAFF812000F0C7FF4FF622
:101B7000FF70FFF7F7FDE82000F0ACFF852000F0D4
:101B8000BDFF0BE000023000000C014000100140DE
:101B90000014014062000020FCBF0200102000F091
:101BA000ADFF782000F0AAFF4FF6FF70FFF7DAFDD7
:101BB000CB2000F08FFF392000F0A0FF2C2000F098
:101BC0009DFF002000F09AFF342000F097FF0220D4
:101BD00000F094FF4FF6FF70FFF7C4FDF72000F010
:101BE00079FF202000F08AFF4FF6FF70FFF7BAFD63
:101BF000EA2000F06FFF002000F080FF002000F0DE
:101C00007DFF4FF6FF70FFF7ADFDC02000F062FFD3
:101C1000212000F073FF4FF6FF70FFF7A3FDC120F6
:101C200000F058FF112000F069FFC52000F052FFBE
:101C30002D2000F063FF332000F060FF4FF6FF70AF
:101C4000FFF790FD362000F045FF002000F056FF22
:101C50004FF6FF70FFF786FD3A2000F03BFF55205E
:101C600000F04CFF4FF6FF70FFF77CFDB12000F055
:101C700031FF002000F042FF172000F03FFF4FF639
:101C8000FF70FFF76FFDB62000F024FF0A2000F080
:101C900035FFA22000F032FFF62000F01BFF0120EC
:101CA00000F02CFF302000F029FFF22000F012FF9E
:101CB000002000F023FF262000F00CFF012000F0A0
:101CC0001DFF4FF6FF70FFF74DFDE02000F002FF13
:101CD000D02000F013FF002000F010FF022000F0E1
:101CE0000DFF072000F00AFF0B2000F007FF1A206D
:101CF00000F004FF312000F001FF542000F0FEFE50
:101D0000402000F0FBFE292000F0F8FE122000F039
:101D1000F5FE122000F0F2FE122000F0EFFE172078
:101D200000F0ECFEE12000F0D5FED02000F0E6FE51
:101D3000002000F0E3FE022000F0E0FE072000F0AB
:101D4000DDFE052000F0DAFE252000F0D7FE2D2074
:101D500000F0D4FE442000F0D1FE452000F0CEFE7D
:101D60001C2000F0CBFE182000F0C8FE162000F06A
:101D7000C5FE1C2000F0C2FE1D2000F0BFFE112099
:101D800000F0A8FEFE48FFF7EDFC4FF6FF70FFF7EE
:101D9000E9FC292000F09EFE2C2000F09BFE10BDE7
:101DA00010B50446072C00DD10BDF648047020462F
:101DB00004EBD0714910A4EB410139B9F020F2498C
:101DC00008804FF4A070F149088006E04FF4A0703D
:101DD000ED490880F020ED490880362000F07AFEB9
:101DE000EB48008849F24131884205D1082141EA97
:101DF000441000F083FE0AE0E548008848F25251A2
:101E0000884204D1002141EA441000F077FE2A20E4
:101E100000F060FE002000F071FE002000F06EFE79
:101E2000D9490988491EC1F3072000F067FED64949
:101E30000978491EC8B200F061FE2B2000F04AFE6E
:101E4000002000F05BFE002000F058FECF4909881A
:101E5000491EC1F3072000F051FECC490978491E04
:101E6000C8B200F04BFE2C2000F034FE00BF9BE710
:101E700010B5044624B10421C648FEF776FB03E002
:101E80000421C448FEF76FFB10BD10B5FFF773FCCB
:101E90000120FFF7EDFFFFF7DFFCBA480078FFF7FE
:101EA0007FFF10BD2DE9F04104460D4616461F4642
:101EB0002A2000F00FFE201200F020FEE0B200F019
:101EC0001DFEA119491EC1F30F2000F017FEA11934
:101ED000491EC8B200F012FE2B2000F0FBFD2812B4
:101EE00000F00CFEE8B200F009FEE919491EC1F34A
:101EF0000F2000F003FEE919491EC8B200F0FEFDF4
:101F0000BDE8F08170B504460D4601231A46294606
:101F10002046FFF7C7FF70BD70B504460D4600268A
:101F20002C2000F0D7FD00BF03E0284600F0E6FDBE
:101F3000761CA642F9D370BD2DE9F04106460F4646
:101F400014461D462B46224639463046FFF7AAFF67
:101F500004FB05F090490988FFF7DEFFBDE8F0813A
:101F600070B505460C468848008885420CDA8748DB
:101F70000088844208DA21462846FFF7C3FF8748D5
:101F800001880120FFF7C8FF70BD70B5002400254F
:101F90002E2000F09FFD00F071FD00F06FFD044663
:101FA00000F06CFD054604F478404FF4FC6101EA52
:101FB000C401084340EAE52070BD70B504460D46F3
:101FC00029462046FFF79EFFFFF7DFFF0646304613
:101FD00070BD2DE9FF4F83B081464FF0000AD34614
:101FE0000598A0EB090504990698461ACDF80490C7
:101FF00004980090002D01DD012705E00DB90027B0
:1020000002E04FF0FF376D42002E02DD4FF0010875
:1020100006E016B94FF0000802E04FF0FF387642B4
:10202000B54201DD2C4600E034460020029019E064
:10203000DDE90010FFF794FFAA44B344A24505DD93
:10204000AAEB040A0198384480B20190A34505DD4B
:10205000ABEB040B0098404480B200900298401C07
:1020600080B20290611C02988842E1DD07B0BDE8B1
:10207000F08F2DE9F04104460D4616461F46DDF867
:102080001880B8F1000F0CD03B4632462946204656
:10209000FFF708FF06FB07F040490988FFF73CFF00
:1020A00027E0A019401E82B22B4629462046FFF7A2
:1020B00090FFE819401E83B2A019401E82B2E819B1
:1020C000401E81B22046FFF784FFE819401E83B20C
:1020D000224629462046FFF77CFFE919491E8BB2AC
:1020E000A119491E8AB2A119491E88B22946FFF7D3
:1020F00070FFBDE8F0812DE9F05F05460E46914680
:102100009B4600240FFA89F70320A0EB49000FFA41
:1021100080FA99E0BBF1000F52D0A0464DE006EBEB
:10212000080291B22A1990B2FFF71AFF06EB0802D3
:1021300091B22A1B90B2FFF713FF321991B2A5EBAF
:10214000080290B2FFF70CFF321B91B2A5EB080218
:1021500090B2FFF705FFA6EB080291B22A1B90B2DE
:10216000FFF7FEFEA6EB080291B22A1990B2FFF724
:10217000F7FE321B91B205EB080290B210E00000AE
:10218000FCBF0200600000205C0000205E00002018
:1021900062000020001401406A0000206800002056
:1021A000FFF7DEFE321991B205EB080290B2FFF79D
:1021B000D7FE08F101000FFA80F8B845AFDD2FE037
:1021C000F21991B22A1990B2FFF7CAFEF21991B230
:1021D0002A1B90B2FFF7C4FE321991B2EA1B90B2EB
:1021E000FFF7BEFE321B91B2EA1B90B2FFF7B8FEBA
:1021F000F21B91B22A1B90B2FFF7B2FEF21B91B212
:102200002A1990B2FFF7ACFE321B91B2EA1990B2D4
:10221000FFF7A6FE321991B2EA1990B2FFF7A0FEBD
:10222000601C04B2BAF1000F05DAA000801D504412
:102230000FFA80FA07E0E01B80000A3050440FFAE2
:1022400080FA781E07B200BFBC427FF763AFBDE8DB
:10225000F09F2DE9F05F804689461646A6F12000E2
:102260001FFA80FA754909688988744A1268D28809
:1022700001FB02F0C11700EB5171C1F3C7076F48B2
:10228000006800680AFB070B6C480068C3886B484D
:102290000068828849464046FFF704FE2C2000F083
:1022A00019FC002416E0002510E01BF80400802132
:1022B0002941084020B16248008800F01FFC03E07B
:1022C0006048008800F01AFC681CC5B2082DECDBE1
:1022D000601CC4B2BC42E6DBBDE8F09F70B50446AA
:1022E0000D46002624E03046544909688988084490
:1022F00055490988884205DD002650480068C08895
:10230000204484B220464D490968C98808444F4991
:102310000988884201DD002600242A7821463046BB
:10232000FFF797FF6D1C454800688088304486B2EF
:1023300028780028D7D170BD70B505460E461446E2
:1023400024E028463D490968898808443E490988AF
:10235000884205DD002539480068C088304486B2CF
:10236000304636490968C98808443849098888428E
:1023700001DD00250026227831462846FFF769FF57
:10238000641C2E4800688088284485B22078002884
:10239000D7D170BD70B505460E46144624E03046D0
:1023A00026490968C988084428490988884205DD02
:1023B0000026224800688088284485B228461F49A4
:1023C00009688988084420490988884201DD002578
:1023D0000026227831462846FFF73BFF641C174849
:1023E0000068C088304486B220780028D7D170BDFC
:1023F000124908607047114800687047104A108001
:10240000104A118070470E4A128802800D4A1288C5
:102410000A8070470A49088070470A490880704757
:1024200070B50446FFF7E7FFC5882B4606480288CB
:1024300021460020FFF780FD70BD000064000020F1
:10244000680000206A0000205C0000205E00002080
:102450002DE9FE4F804681EA0300C00F0C46009034
:1024600021F0004123F00045B8EB0200A94105D25C
:102470004046214690461C460B46024623F000404B
:10248000104347D0270DC7F30A00C3F30A51029047
:10249000401A019040286BDAC3F3130040F4801B0C
:1024A0000098924620B10023D2EB030A63EB0B0B9A
:1024B00001985946C0F14002504600F066F90646C0
:1024C0000D4650465946019A00F06EF910EB08008F
:1024D0006141002487EA115284EAE7731A4340D02D
:1024E000009A62B3019A012A4FEA075215DC001BD9
:1024F00061EB02014FF0004202EA0752CDE90042CF
:10250000001C41F5801132462B4600F0A5F903B0BE
:10251000BDE8F08F40462146F9E7001B61EB020160
:10252000001C41F5801300185B412018A2F500172C
:1025300047EB030140EAD570B6196D4111E06D0813
:102540004FEA360645EAC0754FEA0752001B61EBB9
:102550000201001C41F5801149084FEA30000019C2
:10256000514132462B4603B0BDE8F04F00F065B94B
:102570000098012240000023D0EB020263EBE073DD
:10258000009821464FEAE074B8EB000061EB0401CB
:10259000E9E783F000435BE781F0004158E72DE96C
:1025A000F04D81EA030404F0004B21F0004514468D
:1025B0004FF0000A23F0004150EA050220D054EA0F
:1025C00001021DD0C5F30A570246C5F31303C1F338
:1025D0001300C1F30A5640F4801543F48013A7EBAF
:1025E0000608101BD64608F2FD3873EB050002D32F
:1025F00008F1010801E092185B41B8F1000F03DA1D
:1026000000200146BDE8F08D00204FF48011064601
:1026100084460EE0171B73EB050705D3121B63EB13
:10262000050306434CEA010C49084FEA30009218B2
:102630005B4150EA0107EDD152EA030012D082EA71
:10264000040083EA0501084305D0101BAB4106D204
:102650000122002306E000224FF0004302E06FF069
:10266000010253101AEB06004CEB085110EB0A0064
:1026700041EB0B01BDE8F04D00F0DFB80EB5C10F26
:1026800080EAE0700844CA07002140F233438DE835
:102690000E000A460B4600F0DFF803B000BD00F064
:1026A000004230F000400AD0C10D01F56071C0F366
:1026B000160042EA0151C20840071143704700204A
:1026C0000146704701F0004330B421F0004150EA68
:1026D000010206D00A0DA2F56072C1F31301002AAF
:1026E00002DC30BC00207047440F44EAC104C10042
:1026F000E01830BC00EBC25000F068B830B50B46B3
:10270000014600202022012409E021FA02F59D4221
:1027100005D303FA02F5491B04FA02F52844151EF5
:10272000A2F10102F1DC30BD2DE9F05F0546002089
:1027300092469B4688460646814640241BE0284632
:1027400041464746224600F089F953465A46C01A88
:10275000914110D311461846224600F016F82D1A62
:1027600067EB01084F4622460120002100F00DF8DA
:1027700017EB00094E41201EA4F10104DFDC48469E
:1027800031462A464346BDE8F09F202A04DB203A22
:1027900000FA02F1002070479140C2F1200320FAB4
:1027A00003F3194390407047202A06DBCB17203AE9
:1027B00041FA02F043EAE07306E041FA02F3D04046
:1027C000C2F1200291400843194670470029A8BF72
:1027D0007047401C490008BF20F00100704710B44A
:1027E000B0FA80FC00FA0CF050EA010404BF10BCFF
:1027F000704749B1CCF1200421FA04F411FA0CF12C
:1028000018BF012121430843A3EB0C01CB1D4FEA64
:1028100000614FEA102042BF002010BC704700EB5F
:10282000C35010440029A4BF10BC7047401C49008D
:1028300008BF20F0010010BC704710B5141E73F1E2
:10284000000408DA401C41F1000192185B411A4370
:1028500001D120F0010010BD2DE9F04D92469B46BC
:1028600011B1B1FA81F202E0B0FA80F22032904662
:10287000FFF78BFF04460F4640EA0A0041EA0B01CE
:1028800053465A46084313D0114653EA010019D063
:10289000C8F14002504600F0E1F805460E465046A9
:1028A00059464246FFF771FF084305D0012004E076
:1028B00020463946BDE8F08D0020054346EAE07623
:1028C0002C4337430A986305E40AA0EB0800002272
:1028D000FD0A44EA47540A3002D500200146E9E7E0
:1028E000010510196941DDE9084500196941BDE894
:1028F000F04DA2E72DE9FE4F81EA030404F0004405
:1029000021F0004100944FF0000B23F0004350EA07
:1029100001045ED052EA03045BD0C3F30A54C1F34E
:102920000A552C44A4F2F3340194A0FB0254C1F3E1
:10293000130141F48011C3F3130343F4801301FB2B
:10294000024400FB034E840A970A44EA815447EA92
:102950008357A4FB076802958D0A05FB07854FEA9C
:10296000932C04FB0C542705029D4FEA065847EAB6
:102970001637B5EB08056EEB070C870E920E47EA8B
:10298000811742EA8312A7FB0201B6EB0B0164EB4D
:1029900000042B0D43EA0C335E1844EB1C50DA465E
:1029A0005146E7FB0201C5F313044FEA0B3343EA38
:1029B00014534FEA0432019C43EA0603A4F10C04C9
:1029C0000294009CCDE900B4FFF746FF03B0BDE8D8
:1029D000F08F00200146F9E7C1F30A52C1F3130159
:1029E00040F2FF3341F480119A4202DA002001469E
:1029F000704740F233439A42A2F2334202DC524221
:102A000000F02CB8FFF7C1BE30B5041E71F1000410
:102A100004DB4FF00044404264EB0101141E73F1EB
:102A2000000405DB1C464FF00043524263EB0403F5
:102A3000994208BF904230BD064C074D06E0E06861
:102A400040F0010394E8070098471034AC42F6D3F5
:102A5000FDF772FBC86F0008E86F0008202A04DB4E
:102A6000203A21FA02F00021704721FA02F3D04007
:102A7000C2F1200291400843194670474FF0883157
:102A8000124A1160121D11600021104A0C321160AF
:102A900080210F4A116140211161102151612021D3
:102AA00051610A490831096888B220211161102159
:102AB00011614FF03331054A1160121D11604FF65C
:102AC000FF71024A0C32116070470000000C014097
:102AD000001001401021074A5161802151612021DD
:102AE0001161054908604021516111611021116196
:102AF00070470000001001400C0C01401021074AF3
:102B00005161802111612021116105490860402136
:102B100051611161102111617047000000100140E6
:102B20000C0C01400FB4054B10B503A9044A0298E0
:102B300000F0EEF810BC5DF814FB0000211700084F
:102B40006C0000200FB4084B10B504A902AA03982A
:102B500000F0DEF8044602A9002000F05CFC2046EC
:102B600010BC5DF814FB00001734000802E008C830
:102B7000121F08C1002AFAD170477047002001E0F7
:102B800001C1121F002AFBD1704700002DE9FF5F31
:102B900082B00021DDE90430020DDDF840B00343CE
:102BA00018D044F61050A2F2FF3242431514119887
:102BB00001281FD0A5EB0B00401C5FEA000A4FF074
:102BC00000064E4FDFF83891B046504615D5CAF191
:102BD000000413E0119801244AA3012801D16FEAEF
:102BE0000B010298119AC0E90031C0E9024206B017
:102BF000BDE8F09FCBF10000DFE704460021404A2A
:102C0000491842EB0450CDE9001012E0E00707D06C
:102C100032463B4640464946FFF76CFE80468946B1
:102C200032463B4610461946FFF764FE06460F46FD
:102C30006410002CEAD1DDE90401DDE90023BAF1DA
:102C4000000F06DAFFF756FE42464B46FFF752FEEC
:102C500005E0FFF7A4FC42464B46FFF7A0FC044604
:102C60000E460022284BFFF7CFFE03D84FF0FF306F
:102C7000014607E00022254B20463146FFF7E8FBDE
:102C8000FFF7AAFE102409E0002C0ADB0A22002329
:102C9000FFF74AFD039B30321A55641E50EA0102C9
:102CA000F2D1641C039AC4F111031444119A012A4D
:102CB00003D0012208430DD10AE0084304D00020CC
:102CC0004FF0110B119072E7A3EB0B056D1E0DE099
:102CD0005B4504DD4FF0000205F1010504E003DA75
:102CE0004FF00002A5F10105002AECD002981199DD
:102CF000C0E90231C0E9004579E700000000144056
:102D00000000F03F300000000000F0430000E03F12
:102D10002DE9FF4F95B09A46884606460025EEE11C
:102D2000252877D100242746F94A0121039400E0A1
:102D3000044316F8013F203B01FA03F01042F7D19B
:102D400030782A2811D06FF02F033078A0F13002AC
:102D5000092A16D8039A44F0020402EB820203EB1C
:102D600042021044761C0390EFE758F8042B0392BC
:102D7000002A03DA504244F40054039044F0020461
:102D8000761C30782E2816D116F8010F44F0040472
:102D90002A280DD06FF02F023078A0F13003092BD4
:102DA00009D807EB870302EB4303C718761CF3E748
:102DB00058F8047B761C30786C280FD006DC4C2841
:102DC00017D068280DD06A2814D104E0742810D0D8
:102DD0007A280FD10DE044F400140AE044F4801482
:102DE00001E044F440147278824202D104F5801468
:102DF000761C761C307866280BD013DC582877D0E8
:102E000009DC002875D04528F6D04628F4D047289C
:102E10001AD193E118E0632835D0642879D0652869
:102E200012D18BE1702873D008DC6728F1D06928B3
:102E30006FD06E280DD06F2806D1ACE073282CD04F
:102E4000752874D0782853D05246179990476D1C36
:102E500054E1C4F30250022809D003280DD0D8F859
:102E6000001004280DD00D6008F1040846E1D8F8E0
:102E70000010EA17C1E90052F6E7D8F800100D80FB
:102E8000F2E70D70F0E718F8041B8DF80010002031
:102E90008DF80100EB46012003E058F804BB4FF029
:102EA000FF3061074FF0000102D40DE009F101018C
:102EB0008946B9420FDA8145F8DB1BF80910002971
:102EC000F4D108E009F1010189468142FADB1BF8DF
:102ED00009100029F6D103985346A0EB09072146B3
:102EE0003846179A00F080FA284400EB090507E0FD
:102EF00044E008E10DE01BF8010B5246179990479A
:102F0000B9F10109F7D2534621463846179AF2E043
:102F100039E00A21C4F302524FF0000B0091022A5B
:102F200006D058F8040BC117032A09D00AE023E0A1
:102F300008F1070020F00702F2E80201904605E0E0
:102F400000B2C117042A01D140B2C117002906DA24
:102F50000A460021404261EB02012D2202E02205D7
:102F600004D52B228DF80420012203E0E20701D0D2
:102F70002022F7E7914657E00A2100E010214FF0A8
:102F8000000B00910BE010214FF0000B44F0040403
:102F90000827009103E008204FF0000B0090C4F3D5
:102FA0000252022A05D058F8040B0021032A08D047
:102FB00008E008F1070020F00702F2E8020190465D
:102FC00003E080B2042A00D1C0B24FF0000922070A
:102FD0002AD53278702A07D0DDF800C08CF0100CAA
:102FE0005CEA0B0C05D00EE040228DF80420012293
:102FF00008E050EA010306D030238DF804308DF844
:10300000052002229146009B83F0080353EA0B033C
:103010000AD150EA010201D1620705D530228DF8AC
:1030200004204FF001097F1E3278582A04D039A2BB
:103030000C920CAA02920BE03BA2F9E75B46009AC5
:10304000FFF772FB0C9B9B5C029A521E029213705C
:1030500050EA0102F2D1029804A9081A00F1200BEB
:10306000600702D524F4803400E001275F4502DDCB
:10307000A7EB0B0000E0002000EB0B010090039891
:103080004944401A0390E00306D453462146179A58
:10309000039800F0A9F90544002706E001A852466C
:1030A000C05D179990476D1C7F1C4F45F6DBE00310
:1030B0000CD553462146179A039800F095F905441C
:1030C00004E030205246179990476D1C0099481E25
:1030D00000900029F5DC08E0029802995246007839
:1030E000491C0291179990476D1CBBF10001ABF18F
:1030F000010BF1DC5BE100F065F90544761C3078EA
:1031000000287FF40DAE19B02846BDE8F08F00000E
:1031100009280100303132333435363738396162AD
:103120006364656600000000303132333435363771
:10313000383941424344454600000000600700D44E
:10314000062708F1070020F00700F0E80223804678
:1031500003F0004C5FEA0C0001D097A009E02005C5
:1031600001D596A005E0E00701D095A001E0AFF2FF
:103170004C001390307823F0004365280CD006DC17
:10318000452809D046281DD047287FD13BE0662836
:1031900018D067287AD136E00021112F01DB1120E9
:1031A00000E0781CCDE9000104A90CA8FFF7EEFCB3
:1031B000DDE90D010C9A4FF0000B07F101091092A7
:1031C00000914EE04FF000400097CDE9011004A9B6
:1031D0000CA8FFF7DBFCDDE90D020C9B0F994FF00B
:1031E000000B91461093009211B9791C00EB010974
:1031F000B7EB090003D4C0F1FF3B07F10109A9EBCC
:103200000700019042E0012F00DA01270021112F71
:1032100001DD112000E03846CDE9000104A90CA829
:10322000FFF7B4FCDDE90D010C9A00914FF0000BA3
:10323000B946109221070FD4009A4A4503DA914605
:1032400001E0A9F10109B9F1010F05DD109AA9F119
:103250000101515C3029F4D0B84202DA10F1040FB8
:1032600003DA0121CDE9011010E0002803DC8344DA
:10327000A9EB000102E0411C494500DD8946A0EBB5
:103280000B00401C01904FF000400290200705D435
:103290000198484502DB4FF0FF30019000208DF887
:1032A0004B0002980DF14B07B0F1004F25D00220E2
:1032B0000C902B200D90029800280CDA40420290CE
:1032C0002D200D9007E00A210298FFF717FA303100
:1032D000029007F8011D0C99481E0C900029F2DCA1
:1032E00002980028EFD1791E0D980870307800F010
:1032F000200040F0450007F8020D11A8C01BC01DBA
:1033000002901398007800B1012000EB09010198A8
:1033100001EBE071029801440398401A401E0390AB
:10332000E00306D453462146179A039800F05CF850
:1033300005441398007818B15246179990476D1CB0
:10334000E00323D553462146179A039800F04CF822
:1033500005441BE0BBF1000F07DB0098584504DD76
:103360001098179910F80B0001E017993020524679
:10337000904701980BF1010B401E05F101050190EA
:1033800004D12E205246179990476D1CB9F10001C7
:10339000A9F10109DEDC05E017F8010B5246179987
:1033A00090476D1C0299481E02900029F4DC534698
:1033B0002146179A03989EE62D0000002B0000007E
:1033C000200000002DE9F041044600251E46174666
:1033D000880404D405E039462020B0476D1C641EE3
:1033E000F9D52846BDE8F0812DE9F04104460025D5
:1033F0001E469046C80301D5302700E020278804E8
:1034000004D505E041463846B0476D1C641EF9D529
:103410002846BDE8F0810A68531C0B6010707047A5
:10342000000000000000000000000000000000009C
:1034300000000018181818181808000818000000D4
:1034400000000034242424000000000000000000DC
:103450000000000016247F2424247E242400000081
:10346000000000083E6848681C1612127C1010000C
:1034700000000061D296740810162949C6000000A9
:10348000000000003C646438724ACE467F000000B1
:1034900000000018181818000000000000000000CC
:1034A00000000004081810303030301010180C04E0
:1034B000000000201008080C0404040C0818102058
:1034C000000000080A341C6A080000000000000028
:1034D0000000000000001818187F181818000000DD
:1034E0000000000000000000000000181808300074
:1034F0000000000000000000003C00000000000090
:10350000000000000000000000000018180000008B
:103510000000000206040C080810102020400000E3
:10352000000000003C6642475B7342663C000000BE
:103530000000000018784808080808087E0000000D
:10354000000000003C460606040810207E00000033
:10355000000000007C0606043C0202067C0000001D
:10356000000000000C1C14246444FF04040000004C
:10357000000000007E6060607E0202067C000000A9
:10358000000000001E306048764242623C000000AD
:10359000000000007E0206040C0818103000000035
:1035A000000000003C6242361C6642423C000000C3
:1035B000000000003C664242661A020478000000E7
:1035C000000000000000181800000018180000009B
:1035D0000000000000001818000000181808300053
:1035E00000000000000004183060100C060000000D
:1035F00000000000000000007E007E0000000000CF
:10360000000000000000301804060C10200000002C
:10361000000000301C060606181000101000000004
:103620000000001C224141DDB5A5A5AF94C0403C7F
:1036300000000000181C342426627E43C1000000F4
:10364000000000007C4642467C4242427C00000072
:10365000000000001E204040404040603E0000004E
:10366000000000007C46424343434246780000008D
:10367000000000007E6060607E6060607E00000090
:10368000000000007E6060607E606060600000009E
:10369000000000001E604040CE4242623E0000003A
:1036A00000000000424242427E424242420000008C
:1036B000000000007E181818181818187E00000066
:1036C000000000007C0404040404044478000000AA
:1036D000000000004244485070584C444200000032
:1036E0000000000020202020202020203E0000009C
:1036F000000000006266675F5B5BC1C1C100000043
:1037000000000000626272525A4A4E4646000000B3
:10371000000000003C6243C3C3C343623C0000009E
:10372000000000007C4642424678404040000000D5
:10373000000000003C6243C3C3C343623C180F0057
:10374000000000007C6662667C6C646662000000BB
:10375000000000003E6040601C0602027C00000089
:10376000000000007F18181818181818180000001A
:103770000000000042424242424242623C000000DD
:1037800000000000C14342622624341C18000000DF
:1037900000000000C1C141495B5B76666600000025
:1037A0000000000043663418181C2466C3000000A3
:1037B00000000000C14266341C18181818000000F0
:1037C000000000007E02040C181020607E00000043
:1037D0000000001C10101010101010101010101C01
:1037E000000000402020101008080C040602000011
:1037F0000000003C0C0C0C0C0C0C0C0C0C0C0C3CCD
:1038000000000000181C24620000000000000000FE
:10381000000000000000000000000000000000FFA9
:103820000000002010000000000000000000000068
:103830000000000000003C06023E42467A00000004
:103840000000004040405C62424242427C00000076
:103850000000000000001E20604060203E000000CC
:103860000000000202023E62424242663A0000004C
:103870000000000000003C62427E40603E0000000C
:103880000000000F1810107E101010101000000023
:103890000000000000003F66426658403E43423C44
:1038A0000000004040405C62424242424200000050
:1038B0000000001818007808080808087E000000BA
:1038C000000000040C007C040404040404040C78CC
:1038D000000000606060626C7870686462000000E4
:1038E0000000007808080808080808087E000000A2
:1038F000000000000000764B4B4B4B4B4B00000090
:103900000000000000005C624242424242000000AF
:103910000000000000003C62424342623C000000A4
:103920000000000000005C62424242427C40404095
:103930000000000000003E62424242663A0202027B
:103940000000000000006E726360606060000000B4
:103950000000000000003E20203C06027C00000029
:10396000000000001010FE10101010101E000000CB
:103970000000000000004242424242663A0000005D
:1039800000000000000043426624341818000000C4
:10399000000000000000C1C15B5A5E6666000000C6
:1039A00000000000000062261C181C2662000000B7
:1039B00000000000000043426624341C181830E068
:1039C0000000000000007E060C1810207E000000A1
:1039D0000000000E18101010307010101010180E8B
:1039E0000000080808080808080808080808080867
:1039F00000000030180808080C0E080808081830E5
:103A00000000000000000000714B060000000000F4
:103A100000000000000000000000000000000000A6
:103A20000000000000000000000000000000000096
:103A30000000000000000000000000000000000086
:103A400000000000000000000000038001800180F1
:103A500001800180018001800180018001800000DF
:103A6000000003C003C000000000000000000000D0
:103A7000000000000000000000000E700E700E70CC
:103A80000C300000000000000000000000000000FA
:103A90000000000000000000000000000000000026
:103AA00000000000000000000000000006180638BA
:103AB00006307FFE0C300C300C300C307FFE0C607A
:103AC0001C6018601860000000000000000000008A
:103AD000000000000000000000C000C00FF83CC85B
:103AE00031C031803D801F8003F001F8031C030CBE
:103AF000031C3FF83FE00700060000000000000044
:103B000000000000000000001C007E0E630C631823
:103B100063307E6000C001800300077C0EE61CC697
:103B200018C630C6607C00000000000000000000E5
:103B3000000000000000000000000FE01CF03870E2
:103B400038701C601FC00F003F8C71CC60EC607C33
:103B500070383CFC1FCE0000000000000000000098
:103B60000000000000000000000003C00180018090
:103B700001800000000000000000000000000000C4
:103B80000000000000000000000000000000000035
:103B90000000000000000000003000E001C00180D3
:103BA00003000700060006000E000E000E000E00C7
:103BB000060007000300038001C000E000300000A1
:103BC00000000000000000000C00060003800180DF
:103BD00001C000E0006000600070007000700060D4
:103BE000006000E000C00180038006000C000000BF
:103BF00000000000000000000000018011881DB8D6
:103C000003C007E03DBC0188018000000000000007
:103C100000000000000000000000000000000000A4
:103C20000000000000000000000000000000000094
:103C3000018001800180018001807FFE0180018080
:103C40000180018000000000000000000000000072
:103C50000000000000000000000000000000000064
:103C60000000000000000000000000000000000054
:103C700003C003C001C001C003801F00000000009A
:103C80000000000000000000000000000000000034
:103C9000000000000000000000000FF00000000025
:103CA0000000000000000000000000000000000014
:103CB0000000000000000000000000000000000004
:103CC00000000000000000000000000000000000F4
:103CD00003C003C003C0000000000000000000009B
:103CE0000000000000000000000000180038003054
:103CF000006000E000C001C0018003000300060076
:103D00000E000C001C001800300000000000000035
:103D10000000000000000000000001800FF01C38CF
:103D2000381C301C707E70EE738E7E0E7C0C300C56
:103D3000381C1E780FE000000000000000000000AA
:103D400000000000000000000000000007C01FC0CD
:103D500039C001C001C001C001C001C001C001C023
:103D600001C03FFC3FFC000000000000000000001C
:103D70000000000000000000000003801FF0183861
:103D80000038001800380038007001E00380070098
:103D90001C003FFC3FFC0000000000000000000091
:103DA0000000000000000000000007801FF0003845
:103DB00000380038003007E007F00038001C001C15
:103DC000001820F83FE000000000000000000000A4
:103DD00000000000000000000000000000F001B042
:103DE000033007300E301C30383070307FFE7FFEDD
:103DF0000030003000300000000000000000000033
:103E00000000000000000000000000001FF8180083
:103E10001800180018001FE000F8001C001C001C0F
:103E2000003800F01FC0000000000000000000008B
:103E300000000000000000000000000003F80F0078
:103E40001C001800300037F83C3C300C300C380CAB
:103E5000381C1E380FF000000000000000000000B9
:103E60000000000000000000000000003FFC001CFB
:103E7000001800380070006000E001C0018003807D
:103E8000070006000E000000000000000000000017
:103E90000000000000000000000003C01FF8381CF4
:103EA000381C381C1C380FF007F01C78381C300CFC
:103EB000381C3C380FF0000000000000000000003B
:103EC0000000000000000000000003801FF03838F0
:103ED000301C701C700C380C1FFC0FCC001C001820
:103EE00000701FE01F8000000000000000000000C4
:103EF00000000000000000000000000000000000C2
:103F0000000003C003C001800000000000000000AA
:103F100003C003C003C00000000000000000000058
:103F20000000000000000000000000000000000091
:103F3000000003C003C0018000000000000000007A
:103F400003C003C001C001C003800F0000000000D7
:103F50000000000000000000000000000000000061
:103F6000003800F001C007001E0038000E00078076
:103F700001C00070003000000000000000000000E0
:103F80000000000000000000000000000000000031
:103F90000000000000003FFC000000003FFC3FFC70
:103FA0000000000000000000000000000000000011
:103FB0000000000000000000000000000000000001
:103FC0001C000F00038001E00078001C007001E07D
:103FD00003800E000C000000000000000000000044
:103FE000000000000000000000000FC000F00038DA
:103FF00000380038003803F003800300030000009D
:1040000000000780078000000000000000000000A2
:10401000000000000000000000E007F80C0C18068B
:104020003006700363F36633C673CC63CC62CC6630
:10403000CCE6C7FCE0006000700038101FF0000004
:1040400000000000000000000000000003C007E0C6
:1040500006E00E700E700C301C3818183FFC3FFC48
:10406000700E600EE007000000000000000000007D
:104070000000000000000000000000003FF03838A1
:10408000381C381C38383FF03FF8381C380C380CD6
:10409000381C3FF83FE00000000000000000000076
:1040A0000000000000000000000000E007FC1E040B
:1040B00038003800300070007000700030003800A8
:1040C0003C001F9C07FC00000000000000000000F6
:1040D0000000000000000000000000003FF0307809
:1040E000301C300C300E300E300E300E300E301CC6
:1040F00030383FF03FC0000000000000000000002A
:104100000000000000000000000000001FF8180080
:104110001800180018001FF81FF8180018001800E1
:1041200018001FF81FF80000000000000000000049
:104130000000000000000000000000001FF8180050
:104140001800180018001FF81FF8180018001800B1
:104150001800180018000000000000000000000017
:104160000000000000000000000000F007FC1E043A
:10417000380030007000700070FC700C700C300C57
:10418000380C1F1C07FC00000000000000000000AD
:10419000000000000000000000000000300C300CA7
:1041A000300C300C300C3FFC3FFC300C300C300C31
:1041B000300C300C300C000000000000000000004B
:1041C0000000000000000000000000003FFC018033
:1041D00001800180018001800180018001800180D7
:1041E00001803FFC3FFC00000000000000000000D8
:1041F0000000000000000000000000001FF0003080
:10420000003000300030003000300030003000302E
:1042100000701DE01FC00000000000000000000052
:10422000000000000000000000000000381C387092
:1042300038E039C03B803F003F003B8039C038E068
:1042400038703838381C0000000000000000000002
:104250000000000000000000000000001C001C0026
:104260001C001C001C001C001C001C001C001C006E
:104270001C001FFC1FFC00000000000000000000EC
:10428000000000000000000000000000381C7C3C22
:104290006C3E6E6E666E66CE63C663866186600631
:1042A00060066006600600000000000000000000DC
:1042B0000000000000000000000000003C0C3C0C6E
:1042C0003E0C360C330C338C318C31CC30EC306CF2
:1042D000307C303C301C000000000000000000007A
:1042E0000000000000000000000001C00FF81C3CAE
:1042F000381C700E700E60066006700E700E700C2A
:10430000381C1E780FE000000000000000000000D4
:104310000000000000000000000000003FF0383CFA
:10432000381C380C380C381C38783FE0380038001E
:1043300038003800380000000000000000000000D5
:104340000000000000000000000001C00FF81C3C4D
:10435000381C700E700E60066006700E700E700CC9
:10436000381C1E780FE0018001C000FF003C0000F7
:104370000000000000000000000000003FF038389E
:1043800038183818383838F03FC038E038703838C6
:104390003838381C380E0000000000000000000013
:1043A0000000000000000000000001E00FF83800ED
:1043B000380038003C001F8003F00078001C001C0F
:1043C000001C38783FE00000000000000000000002
:1043D0000000000000000000000000007FFE0180DF
:1043E00001800180018001800180018001800180C5
:1043F000018001800180000000000000000000003A
:10440000000000000000000000000000300C300C34
:10441000300C300C300C300C300C300C300C300CBC
:10442000381C1C380FF000000000000000000000E5
:10443000000000000000000000000000E006700E18
:10444000700E381C381C1C181C380C300E7006609E
:1044500007E003C003C000000000000000000000EF
:104460000000000000000000000000006006600680
:10447000600660066186638673C673CE766C366CA2
:104480003C3C3C3C381C00000000000000000000E8
:10449000000000000000000000000000301C381880
:1044A0001C380E7007E003C003C007E00E701C3814
:1044B0001838381C700E00000000000000000000DA
:1044C000000000000000000000000000700E700CF2
:1044D000381C1C380E70066007E003C001800180A4
:1044E0000180018001800000000000000000000049
:1044F0000000000000000000000000003FFC001C65
:104500000038007000E001C0038007000E000C00BE
:1045100018003FFC3FFC000000000000000000000D
:10452000000000000000000007F007F00600060091
:10453000060006000600060006000600060006004B
:1045400006000600060006000600060007F0000050
:104550000000000000000000000018001C000C001B
:104560000600070003000380018001C000C0006056
:104570000070003000380018000C0000000000003F
:1045800000000000000000000FE00FE0006000608D
:10459000006000600060006000600060006000601B
:1045A0000060006000600060006000600FE00000DC
:1045B00000000000000000000000000003C006C072
:1045C00006600C301818301C0000000000000000CD
:1045D00000000000000000000000000000000000DB
:1045E00000000000000000000000000000000000CB
:1045F00000000000000000000000000000000000BB
:10460000000000000000000000000000FFFF0000AC
:10461000000000000000000000001E0003800000F9
:10462000000000000000000000000000000000008A
:10463000000000000000000000000000000000007A
:10464000000000000000000000000000000000006A
:1046500000001FF01038001C001C0FFC1C1C381C34
:10466000381C3CFC1FDC00000000000000000000C3
:104670000000000000000000000038003800380092
:1046800038003BF83E1C3C1C380C380C380C380CFD
:10469000381C3C781FE00000000000000000000013
:1046A000000000000000000000000000000000000A
:1046B000000007F80E001C003800380038003800F1
:1046C0001C000F1807F800000000000000000000A8
:1046D00000000000000000000000001C001C001C86
:1046E000001C0FFC1C1C381C301C301C301C301CE7
:1046F000383C1CFC0F9C0000000000000000000083
:1047000000000000000000000000000000000000A9
:1047100000000FF01C38381C300C3FFC300030001B
:1047200038001E0C07FC0000000000000000000024
:104730000000000000000000003C01FE03800300B8
:10474000030003007FFC7FFC030003000300030061
:104750000300030003000000000000000000000050
:104760000000000000000000000000000000000049
:1047700000000FFE1C383818381818381FF03B801E
:1047800030003FF01FFC300E700E381C1FF8000088
:104790000000000000000000000038003800380071
:1047A00038003BF83E383C1C381C381C381C381C80
:1047B000381C381C381C00000000000000000000FD
:1047C0000000000000000000018003C003C00000E2
:1047D00000001FC001C001C001C001C001C001C074
:1047E00001C001C03FFC000000000000000000000C
:1047F00000000000000000000020007000700000B9
:1048000000003FF0007000700070007000700070D9
:104810000070007000700070007020E03FC0000069
:104820000000000000000000000018001800180040
:104830001800183C187018E01B801F001B8019E03E
:1048400018701838181C000000000000000000005C
:10485000000000000000000000001FC001C001C0F7
:1048600001C001C001C001C001C001C001C001C040
:1048700001C001C03FFC000000000000000000007B
:104880000000000000000000000000000000000028
:1048900000006F3C79EE71CE718E718E718E718ECB
:1048A000718E718E718E000000000000000000000B
:1048B00000000000000000000000000000000000F8
:1048C00000003BF83E383C1C381C381C381C381C97
:1048D000381C381C381C00000000000000000000DC
:1048E00000000000000000000000000000000000C8
:1048F00000000FF01C3C381C700E700E700E700C17
:10490000381C1E780FE000000000000000000000CE
:104910000000000000000000000000000000000097
:1049200000003BF83E1C3C1C380C380C380C380C92
:10493000381C3C783FE03800380038003800000070
:104940000000000000000000000000000000000067
:1049500000000FFC1C1C381C301C301C301C301C90
:10496000383C1CFC0F9C001C001C001C001C0000A0
:104970000000000000000000000000000000000037
:10498000000019F81F1C1C0C180E18001800180045
:1049900018001800180000000000000000000000CF
:1049A0000000000000000000000000000000000007
:1049B00000000FF81C0018001E000FC001F80018BE
:1049C000001818381FF00000000000000000000070
:1049D00000000000000000000000000006000600CB
:1049E00006007FFC06000600060006000600060022
:1049F0000700078401FC0000000000000000000028
:104A000000000000000000000000000000000000A6
:104A10000000381C381C381C381C381C381C381C4A
:104A2000383C1CFC0FDC000000000000000000000F
:104A30000000000000000000000000000000000076
:104A40000000700C381C38181C380C300E700660D2
:104A500007E003C003C000000000000000000000E9
:104A60000000000000000000000000000000000046
:104A70000000600660066186738E73CC33CC366CA2
:104A8000366C3C3C3C380000000000000000000098
:104A90000000000000000000000000000000000016
:104AA0000000381C1C380E7007E003C003C007E08C
:104AB0000E701C38381E00000000000000000000CE
:104AC00000000000000000000000000000000000E6
:104AD0000000700C381C38181C380C300E70066042
:104AE00007E003C003C0038007000E007C00000045
:104AF00000000000000000000000000000000000B6
:104B000000001FF80038007000E001C003800700BB
:104B10000C001FFC3FFC0000000000000000000033
:104B20000000000000000000007801F8038003800E
:104B300003800380038003003F003E0003000380E6
:104B40000380038003800380038001C000F800001D
:104B5000000000000180018001800180018001804F
:104B6000018001800180018001800180018001803D
:104B700001800180018001800180018001800000AE
:104B800000000000000000001E001F80018001C026
:104B900001C001C001C000C000FC007C00C001C019
:104BA00001C001C001C001C001C003801F0000009E
:104BB00000000000000000000000000000000000F5
:104BC0000000000000001C003F0671CE60FC0000E9
:104BD00000000000000000000000000000000000D5
:104BE00000000000000000000000000000000000C5
:104BF00000000000000000000000000000000000B5
:104C000000000000000000000000000000000000A4
:104C10000000000000000000000000000000000094
:104C20000000000000000000000000000000000084
:104C30000000000000000000000000000000000074
:104C40000000000000000000000000000000000064
:104C50000000003C00003C00003C00003C00003C28
:104C600000003C00003C00003C00003C00003C0018
:104C7000003C00003C00003C00003C000000000044
:104C80000000003C00007E00003C0000000000002E
:104C90000000000000000000000000000000000014
:104CA0000000000000000000000000000000000004
:104CB000000003C3E003C3E003C3C003C3C003C3D6
:104CC000C003C3C003C1C00000000000000000001A
:104CD00000000000000000000000000000000000D4
:104CE00000000000000000000000000000000000C4
:104CF00000000000000000000000000000000000B4
:104D000000000000000000000000000000000000A3
:104D1000000000000000000001E0E001C0E001C070
:104D2000E001C0E03FFFFE3FFFFE03C1C00381C0C2
:104D30000381C00381C07FFFFC7FFFFC07838007E6
:104D4000038007038007038007078000000000003E
:104D50000000000000000000000000000000000053
:104D60000000000000000000000000000000000043
:104D70000700000F00000E0001FFF007FFF01F0EFC
:104D8000001E1E001E1C001E1C000FDC0007FC0085
:104D900000FF80003FF00038F800387800783C00D1
:104DA00070783071F83FFFE01FFF0000E00000E086
:104DB0000000E00000000000000000000000000013
:104DC00000000000000000000000000000000000E3
:104DD00000000F800F3FE01E78703C7070707070A4
:104DE000E07071C03FE3801FC700000E00001C0090
:104DF00000780000F0F001E7FC03CF0E078E0E0FE5
:104E00000E0E1E0E0E3C07BC7003F80000000000E2
:104E10000000000000000000000000000000000092
:104E20000000000000000000000000000000000082
:104E3000000000000001FF0007FF800F03C00F0308
:104E4000C00F03C00F0780079F0003FE0003F000A0
:104E50000FF83C3E7C3C3C1F3C780FF87807F87C10
:104E600001F03E03F81FFFFC07FE1F0000000000DA
:104E70000000000000000000000000000000000032
:104E80000000000000000000000000000000000022
:104E90000000003E00003C00003C00003C00003CE4
:104EA00000003C00003C000000000000000000008A
:104EB00000000000000000000000000000000000F2
:104EC00000000000000000000000000000000000E2
:104ED00000000000000000000000000000000000D2
:104EE00000000000000000000000000000000000C2
:104EF00000800001C0000780000F00001E00003C81
:104F00000000780000F00000E00001E00001E00097
:104F100001C00003C00003C00001C00001E00001A7
:104F2000E00000F00000F000007800003C00001EEF
:104F300000000F000007C00001C0000000000000DA
:104F40000000000000000000000000000000000061
:104F5000000003C00001E00000F000007C00003E03
:104F600000001E00000F0000078000078000038083
:104F70000003C00003C00003C00003C000038000A2
:104F80000780000780000F00001E00003C00007832
:104F90000000F00001E000038000000000000000BD
:104FA0000000000000000000000000000000000001
:104FB0000000001C00001C000018000F18F007DBA8
:104FC000E0007F0000FF0007DBE00E187000180013
:104FD000001C00001C000000000000000000000099
:104FE00000000000000000000000000000000000C1
:104FF00000000000000000000000000000000000B1
:1050000000000000000000000000000000000000A0
:105010000000000000000000000000000000000090
:1050200000003C00003C00003C00003C00003C0054
:10503000003C003FFFFC3FFFFC003C00003C000048
:105040003C00003C00003C000000000000000000AC
:105050000000000000000000000000000000000050
:105060000000000000000000000000000000000040
:105070000000000000000000000000000000000030
:105080000000000000000000000000000000000020
:105090000000000000000000000000000000000010
:1050A0007C00007E00007E00003E00001E00003CF0
:1050B0000000F80007E0000400000000000000000D
:1050C00000000000000000000000000000000000E0
:1050D00000000000000000000000000000000000D0
:1050E00000000000000000000000000000000000C0
:1050F00000000003FFE003FFE000000000000000EC
:10510000000000000000000000000000000000009F
:10511000000000000000000000000000000000008F
:10512000000000000000000000000000000000007F
:10513000000000000000000000000000000000006F
:10514000000000000000000000000000000000005F
:10515000000000000000000000000000000000004F
:105160007C0000FE0000FE00007E00000000000049
:10517000000000000000000000000000000000002F
:10518000000000000000000000000000000000001F
:1051900000000000780000F00000E00001E00003E3
:1051A000C0000380000780000F00000E00001E00FA
:1051B000003C0000380000700000F00000E000013A
:1051C000C00003C0000780000700000F00001E00A1
:1051D000001C0000000000000000000000000000B3
:1051E00000000000000000000000000000000000BF
:1051F000000000000000000001FFC007FFE00F00FA
:10520000F01E00781E003C3C00FC3C07FC3C1FBC30
:105210003C7C1C3DF03C3FC03C3F003C1E00381E27
:1052200000780F80F007FFE001FF80000000000021
:10523000000000000000000000000000000000006E
:10524000000000000000000000000000000000005E
:105250000000000000000000007E0003FE001FDED2
:10526000000E1E00001E00001E00001E00001E009A
:10527000001E00001E00001E00001E00001E000098
:105280001E00001E000FFFF80FFFF80000000000D6
:10529000000000000000000000000000000000000E
:1052A00000000000000000000000000000000000FE
:1052B000000000000000000003FF800FFFE00E016F
:1052C000F00000F00000F00000F00000F00001E04D
:1052D0000003C0000F80003E00007C0001F00003CE
:1052E000C0000F80001FFFFC1FFFFC00000000003B
:1052F00000000000000000000000000000000000AE
:10530000000000000000000000000000000000009D
:1053100000000000000000000FFF800FFFE0000110
:10532000E00000F00000F00001E00003C001FF0019
:1053300001FFC00003F00000780000780000780052
:1053400000780001F00FFFC00FFF00000000000018
:10535000000000000000000000000000000000004D
:10536000000000000000000000000000000000003D
:105370000000000000000000000FC0001FC0003F40
:10538000C0007BC000F3C001E3C003C3C00783C0FB
:105390000F03C01C03C03803C07FFFFE7FFFFE0069
:1053A00003C00003C00003C00003C00000000000F1
:1053B00000000000000000000000000000000000ED
:1053C00000000000000000000000000000000000DD
:1053D00000000000000000000FFFE00FFFE00F00E2
:1053E000000F00000F00000F00000F00000FFF80F3
:1053F0000FFFE00000F00000780000780000780067
:1054000000F00003E00FFFC00FFE000000000000EE
:10541000000000000000000000000000000000008C
:10542000000000000000000000000000000000007C
:105430000000000000000000003FF001FFF003E06A
:10544000000780000F00001E00001E1F001FFFE06D
:105450001FC1F81E00781E003C1E003C1E003C0FC1
:1054600000780F80F807FFE001FF800000000000D7
:10547000000000000000000000000000000000002C
:10548000000000000000000000000000000000001C
:1054900000000000000000001FFFFC1FFFFC0000D8
:1054A000780000F00000E00001E00003C000078089
:1054B000000F00000F00001E00003C0000780000FC
:1054C000F00001F00001E00003C000000000000057
:1054D00000000000000000000000000000000000CC
:1054E00000000000000000000000000000000000BC
:1054F000000000000000000003FFE00FE3F00F00D9
:10550000781E00781E00780F00F007E3E001FF80AE
:1055100001FF8007E7E00F00F81E00781E003C1E28
:10552000007C1F00F80FFFF003FFC0000000000028
:10553000000000000000000000000000000000006B
:10554000000000000000000000000000000000005B
:10555000000000000000000003FF800FC7E01E00F5
:10556000F01E00783C00783C00783C00381E007843
:105570000FEFF807FFB80000780000780000F00097
:1055800001E0000FC00FFF000FF00000000000005E
:10559000000000000000000000000000000000000B
:1055A00000000000000000000000000000000000FB
:1055B00000000000000000000000000000000000EB
:1055C00000000000007E00007E00007E0000180049
:1055D00000000000000000000000000000000000CB
:1055E0003C00007E00007E00003E00000000000045
:1055F00000000000000000000000000000000000AB
:10560000000000000000000000000000000000009A
:10561000000000000000000000000000000000008A
:1056200000000000007E00007E00007E00001800E8
:10563000000000000000000000000000000000006A
:105640003E00007E00007F00001F00001E00001EC4
:105650000000FC0007F00004000000000000000053
:10566000000000000000000000000000000000003A
:10567000000000000000000000000000000000002A
:10568000400001E00007C0001F00007E0001F8009C
:1056900003E0000F80000F800003E00000F800002E
:1056A0003E00000F800003E00000E000000000006A
:1056B00000000000000000000000000000000000EA
:1056C00000000000000000000000000000000000DA
:1056D00000000000000000000000000000000000CA
:1056E000000000000000000000000000001FFFF8A4
:1056F0000000000000000000001FFFF81FFFF8007E
:105700000000000000000000000000000000000099
:105710000000000000000000000000000000000089
:105720000000000000000000000000000000000079
:105730000000000000000000000000000000000069
:105740000007800003E00000F800003E00000F802A
:105750000003E00000F80001F00007C0001F000097
:105760007C0001F00007C000030000000000000002
:105770000000000000000000000000000000000029
:105780000000000000000000000000000000000019
:10579000000001C00001FE00007F800007C0000182
:1057A000E00000F00000F00001F00003E0007FC026
:1057B000007E00007000007000007000000000001B
:1057C000000000F80000F80000F8000000000000F1
:1057D00000000000000000000000000000000000C9
:1057E00000000000000000000000000000000000B9
:1057F0000000001F8000FFF003C07807801C0E002F
:105800000E1C000E3C000F383FC778FFC770E3C77F
:1058100071C3C7F3C387E3C387E3878EE3878EE350
:10582000CF8EE3FFFC71F9F07000007000003800CB
:10583000003C00000F01C007FFC000000000000096
:105840000000000000000000000000000000000058
:105850000000000000000000007E00007F0000FF4C
:105860000000E78001E78003C3C003C3C00781E0F5
:105870000781E00F00F00F00F81FFFF81FFFFC3C4E
:10588000003C3C001E78001EF0000F0000000000ED
:105890000000000000000000000000000000000008
:1058A00000000000000000000000000000000000F8
:1058B00000000000000000001FFFC01FFFF01E00DE
:1058C000F01E00781E00781E00F01E01F01FFFC0C1
:1058D0001FFFE01E01F81E00781E003C1E003C1E4B
:1058E00000781E00F81FFFE01FFF0000000000000E
:1058F00000000000000000000000000000000000A8
:105900000000000000000000000000000000000097
:10591000000000000000000000FFF803FFF807C0CF
:10592000000F00001E00001E00003C00003C0000B4
:105930003C00003C00003C00003E00001E00000F48
:1059400000000FC00803FFF800FFF800000000008F
:105950000000000000000000000000000000000047
:105960000000000000000000000000000000000037
:1059700000000000000000003FFF003FFFE03C018E
:10598000F03C00783C003C3C003C3C003C3C001EB1
:105990003C001E3C001E3C003C3C003C3C00783C73
:1059A00000F83C07E03FFFC03FFC000000000000A3
:1059B00000000000000000000000000000000000E7
:1059C00000000000000000000000000000000000D7
:1059D00000000000000000000FFFF00FFFF00F00BC
:1059E000000F00000F00000F00000F00000FFFF07D
:1059F0000FFFF00F00000F00000F00000F00000F5E
:105A000000000F00000FFFF00FFFF000000000008B
:105A10000000000000000000000000000000000086
:105A20000000000000000000000000000000000076
:105A300000000000000000000FFFF00FFFF00F005B
:105A4000000F00000F00000F00000F00000FFFF01C
:105A50000FFFF00F00000F00000F00000F00000FFD
:105A600000000F00000F00000F0000000000000009
:105A70000000000000000000000000000000000026
:105A80000000000000000000000000000000000016
:105A9000000000000000000000FFFC03FFFC0FC03E
:105AA000041F00001E00003C00003C0000780FFCBA
:105AB000780FFC78003C3C003C3C003C3E003C1F26
:105AC000003C0FC03C03FFFC00FFF800000000009A
:105AD00000000000000000000000000000000000C6
