:020000040800F2
:10000000280C0020050100089D0300080F030008CC
:10001000990300084D010008410A00080000000093
:100020000000000000000000000000003906000889
:10003000A501000800000000250400087907000859
:100040001F0100081F0100081F0100081F01000810
:100050001F0100081F0100081F0100081F01000800
:100060001F0100081F0100081F0100081F010008F0
:100070001F0100081F0100081F0100081F010008E0
:100080001F0100081F0100081F0100081F010008D0
:100090001F0100081F0100081F0100081F010008C0
:1000A0001F0100081F0100081F0100081F010008B0
:1000B0001F0100081F0100081F0100081F010008A0
:1000C0001F0100081F0100081F0100081F01000890
:1000D0001F0100081F0100081F010008C5080008D3
:1000E0001F0100081F0100081F010008DFF810D0E1
:1000F00000F01AF800480047A90A0008AFF3008092
:10010000280C00200648804706480047FEE7FEE727
:10011000FEE7FEE7FEE7FEE7FEE7FEE7FEE7FEE7B7
:100120007D070008ED000008064C074D06E0E0687A
:1001300040F0010394E8070098471034AC42F6D32E
:10014000FFF7D8FF200B0008400B000800BFFEE7B8
:1001500021B1026842F00102026004E002684FF639
:10016000FE731A400260704710B50022026847F61D
:10017000F0739A430C6A8B6823430C6923434C69E0
:1001800023438C692343CC6923434C6A23438C6A01
:1001900023431A430260CB6843600B6883604B685B
:1001A000C36010BD7047000070B504460F4800687A
:1001B0004FF47A71B0FBF1F6304600F0B3FA002547
:1001C00008E000BF4FF0E020006900F48030002814
:1001D000F8D06D1CA542F4D34FF0E020006920F068
:1001E00001004FF0E021086170BD00000000002018
:1001F0002DE9F041024600250026002000230024BE
:10020000002791F803C00CF00F0591F803C00CF023
:10021000100CBCF1000F03D091F802C04CEA0505A8
:1002200091F800C0BCF1000F31D0146800202BE021
:100230004FF0010C0CFA00F3B1F800C00CEA030611
:100240009E4220D183004FF00F0C0CFA03F7BC4301
:1002500005FA03FC4CEA040491F803C0BCF1280F32
:1002600006D14FF0010C0CFA00FCC2F814C00AE0F1
:1002700091F803C0BCF1480F05D14FF0010C0CFA06
:1002800000FCC2F810C0401C0828D1D31460B1F89B
:1002900000C0BCF1FF0F34DD546800202EE000F1F7
:1002A000080C4FF0010808FA0CF3B1F800C00CEA92
:1002B00003069E4221D183004FF00F0C0CFA03F786
:1002C000BC4305FA03FC4CEA040491F803C0BCF1FA
:1002D000280F05D100F1080C08FA0CF8C2F81480B8
:1002E00091F803C0BCF1480F07D100F1080C4FF0A2
:1002F000010808FA0CF8C2F81080401C0828CED378
:100300005460BDE8F081416170470161704700BFF2
:10031000FEE7000008B50121082000F0A5F84FF421
:100320008070ADF8000010208DF8030002208DF8D9
:10033000020069461748FFF75BFF4FF48040ADF8B5
:10034000000069461348FFF753FF4FF40050ADF823
:10035000000069460F48FFF74BFF4FF48050ADF89F
:10036000000069460B48FFF743FF4FF480710948CE
:10037000FFF7CBFF4FF480410648FFF7C6FF4FF46D
:1003800000510448FFF7C1FF4FF480510148FFF7C7
:10039000BCFF08BD000C014000BFFEE77047000035
:1003A00070B5002100230F22C47804B3154C2468D3
:1003B00004F4E064C4F5E064210AC1F10403CA4016
:1003C000447804FA03F184781440214309010E4C67
:1003D0000678A155047804F01F050124AC40057887
:1003E0006D11AD0005F1E025C5F8004109E0047884
:1003F00004F01F050124AC40044D0678761145F841
:10040000264070BD0CED00E000E400E080E100E07B
:1004100002490143024A1160704700000000FA05DA
:100420000CED00E07047000029B1064A5269024312
:10043000044B5A6104E0034A52698243014B5A61FA
:10044000704700000010024029B1064AD2690243F9
:10045000044BDA6104E0034AD2698243014BDA615A
:10046000704700000010024029B1064A9269024319
:10047000044B9A6104E0034A92698243014B9A61FA
:10048000704700000010024030B500210022002417
:1004900000232D4D6D6805F00C0121B1042905D014
:1004A000082923D105E0294D056022E0284D05608B
:1004B0001FE0254D6D6805F47012234D6D6805F43D
:1004C0008034022505EB92421CB9224D554305604C
:1004D0000BE01D4D6D6805F400351DB11E4D5543F3
:1004E000056002E01A4D5543056002E0174D0560B6
:1004F00000BF00BF144D6D6805F0F0010909174DEC
:100500006B5C0568DD4045600F4D6D6805F4E0618A
:10051000090A124D6B5C4568DD4085600A4D6D68C7
:1005200005F46051C90A0D4D6B5C4568DD40C5603E
:10053000054D6D6805F44041890B094D6B5CC5683C
:10054000B5FBF3F5056130BD0010024000127A00E2
:10055000808D5B0000093D00C0C62D001400002006
:100560002400002000B587B001210420FFF77CFFA4
:1005700001214804FFF768FF0420ADF808001820A7
:100580008DF80B0003208DF80A0002A92848FFF718
:100590002FFE0820ADF8080004208DF80B00032082
:1005A0008DF80A0002A92248FFF722FE0220ADF8CA
:1005B000080010208DF80B0003208DF80A0002A916
:1005C0001B48FFF715FE4FF4E13003900020ADF813
:1005D0001000ADF81200ADF81400ADF818000C20B2
:1005E000ADF8160003A9134800F0BAF94FF4A06063
:1005F000FFF70EFF26208DF8040001208DF805007E
:100600008DF806008DF8070001A8FFF7C9FE01224A
:1006100040F22441074800F07EF90121054800F02E
:1006200052F908210248FFF76EFE07B000BD000036
:100630000008014000440040704710B500F002F887
:1006400010BD00000CB500200190009033480068F8
:1006500040F480303149086000BF3048006800F441
:10066000003000900198401C0190009818B9019842
:10067000B0F5A06FF1D12948006800F4003010B146
:100680000120009001E0002000900098012843D153
:100690002348006840F010002149086008460068BF
:1006A00020F0030008600846006840F0020008607F
:1006B0001A4840681949486008464068486008463A
:1006C000406840F4806048600846406820F47C1030
:1006D00048600846406840F42410486008460068B6
:1006E00040F08070086000BF0C48006800F00070A7
:1006F0000028F9D00948406820F003000749486005
:100700000846406840F00200486000BF0348406867
:1007100000F00C000828F9D10CBD000000100240C8
:100720000020024030B50146B1F1807F01D30120A5
:1007300030BD21F07F40401E4FF0E0225061501745
:100740000F22002807DA13071D0E094B00F00F04D3
:10075000241F1D5503E013071C0E064B1C5400BF3D
:1007600000204FF0E0229061072010610020DFE7B9
:1007700018ED00E000E400E07047000010B51348F9
:10078000006840F0010011490860084640681049BF
:1007900008400E494860084600680E4908400B4969
:1007A00008600846006820F4802008600846406819
:1007B00020F4FE0048604FF41F008860FFF73DFF03
:1007C0004FF000600449086010BD000000100240B6
:1007D0000000FFF8FFFFF6FE08ED00E000B585B071
:1007E00001210820FFF740FE01218804FFF72CFEBD
:1007F0004FF48060ADF8000018208DF8030003204E
:100800008DF8020069461548FFF7F2FC4FF40060CE
:10081000ADF8000004208DF8030003208DF80200DD
:1008200069460E48FFF7E4FC4FF4E13001900020E8
:10083000ADF80800ADF80A00ADF80C00ADF81000F6
:100840000C20ADF80E0001A9054800F089F801213F
:10085000034800F038F805B000BD0000000C01406E
:100860000048004000B58BB000211348FFF770FC32
:1008700001210846FFF7D8FD10480190104800906C
:1008800010200290800103900020049080200590A9
:1008900000200690079008904FF4805009900020A7
:1008A0000A9069460448FFF75FFC01210248FFF700
:1008B0004FFC0BB000BD00001C00024028000020CF
:1008C00004480040704721B1828942F4005282817D
:1008D00004E082894DF6FF731A408281704710B59B
:1008E000FFF740FEFFF77AFF10BD1AB1838A0B4372
:1008F000838202E0838A8B43838270470246002012
:10090000B1F5007F00D100BF13880B400BB101206F
:1009100000E000207047F0B50346002400260025C3
:10092000002040F66A17B94200D100BF1846C1F353
:10093000421401F01F06012707FA06F5012C01D128
:100940000C3004E0022C01D1103000E014301AB158
:1009500007682F43076002E00768AF430760F0BDF8
:100960002DE9F04786B005460E460024A24600BF9A
:10097000A1460027B08900B100BF2F462C8A4CF653
:10098000FF700440F08804432C82AC894EF6F310CB
:100990000440B08831890843718908430443AC811D
:1009A000AC8A4FF6FF400440B0890443AC8201A8F2
:1009B000FFF76AFD1F48874202D1DDF810A001E071
:1009C000DDF80CA0A88900F4004040B10AEBCA0091
:1009D00000EB0A1031684900B0FBF1F807E00AEBC0
:1009E000CA0000EB0A1031688900B0FBF1F86420FE
:1009F000B8FBF0F004012009642101FB1089A889EB
:100A000000F4004040B1322000EBC900B0FBF1F02F
:100A100000F00700044308E0322000EB09106421D5
:100A2000B0FBF1F000F00F0004432C8106B0BDE8EC
:100A3000F087000000380140C1F30802828070474F
:100A400000BFFEE770B504460D4600BF802120467A
:100A5000FFF754FF0028F9D029462046FFF7ECFFA6
:100A600070BD70B505460C4604E014F8011B28461D
:100A7000FFF7E8FF20780028F7D100BF4021284683
:100A8000FFF73CFF0028F9D070BD02E008C8121F34
:100A900008C1002AFAD170477047002001E001C167
:100AA000121F002AFBD17047FFF734FCFFF717FF36
:100AB000FFF7D8FE4FF4FA60FFF776FB01228021A2
:100AC0001348FFF712FF00BF1248006880F480400F
:100AD000104908604FF4FA70FFF766FB0D48006894
:100AE00080F400500B4908604FF4FA70FFF75CFB8C
:100AF0000848006880F48050064908604FF4FA7096
:100B0000FFF752FB04A10248FFF7ABFFDCE7000050
:100B1000004800400C0C014041414141414100006E
:100B2000400B000800000020280000008A0A00088E
:100B3000680B000828000020000C00009A0A00083A
:100B400000A24A04000000000000000001020304AB
:100B50000607080900000000010203040102030463
:080B600006070809020406085B
:04000005080000ED02
:00000001FF
